{
  "_format": "hh-sol-artifact-1",
  "contractName": "CertificateNFT",
  "sourceName": "contracts/CertNFT.sol",
  "abi": [
    {
      "inputs": [],
      "stateMutability": "nonpayable",
      "type": "constructor"
    },
    {
      "inputs": [],
      "name": "AccessControlBadConfirmation",
      "type": "error"
    },
    {
      "inputs": [
        {
          "internalType": "address",
          "name": "account",
          "type": "address"
        },
        {
          "internalType": "bytes32",
          "name": "neededRole",
          "type": "bytes32"
        }
      ],
      "name": "AccessControlUnauthorizedAccount",
      "type": "error"
    },
    {
      "inputs": [],
      "name": "ERC721EnumerableForbiddenBatchMint",
      "type": "error"
    },
    {
      "inputs": [
        {
          "internalType": "address",
          "name": "sender",
          "type": "address"
        },
        {
          "internalType": "uint256",
          "name": "tokenId",
          "type": "uint256"
        },
        {
          "internalType": "address",
          "name": "owner",
          "type": "address"
        }
      ],
      "name": "ERC721IncorrectOwner",
      "type": "error"
    },
    {
      "inputs": [
        {
          "internalType": "address",
          "name": "operator",
          "type": "address"
        },
        {
          "internalType": "uint256",
          "name": "tokenId",
          "type": "uint256"
        }
      ],
      "name": "ERC721InsufficientApproval",
      "type": "error"
    },
    {
      "inputs": [
        {
          "internalType": "address",
          "name": "approver",
          "type": "address"
        }
      ],
      "name": "ERC721InvalidApprover",
      "type": "error"
    },
    {
      "inputs": [
        {
          "internalType": "address",
          "name": "operator",
          "type": "address"
        }
      ],
      "name": "ERC721InvalidOperator",
      "type": "error"
    },
    {
      "inputs": [
        {
          "internalType": "address",
          "name": "owner",
          "type": "address"
        }
      ],
      "name": "ERC721InvalidOwner",
      "type": "error"
    },
    {
      "inputs": [
        {
          "internalType": "address",
          "name": "receiver",
          "type": "address"
        }
      ],
      "name": "ERC721InvalidReceiver",
      "type": "error"
    },
    {
      "inputs": [
        {
          "internalType": "address",
          "name": "sender",
          "type": "address"
        }
      ],
      "name": "ERC721InvalidSender",
      "type": "error"
    },
    {
      "inputs": [
        {
          "internalType": "uint256",
          "name": "tokenId",
          "type": "uint256"
        }
      ],
      "name": "ERC721NonexistentToken",
      "type": "error"
    },
    {
      "inputs": [
        {
          "internalType": "address",
          "name": "owner",
          "type": "address"
        },
        {
          "internalType": "uint256",
          "name": "index",
          "type": "uint256"
        }
      ],
      "name": "ERC721OutOfBoundsIndex",
      "type": "error"
    },
    {
      "inputs": [
        {
          "internalType": "address",
          "name": "owner",
          "type": "address"
        }
      ],
      "name": "OwnableInvalidOwner",
      "type": "error"
    },
    {
      "inputs": [
        {
          "internalType": "address",
          "name": "account",
          "type": "address"
        }
      ],
      "name": "OwnableUnauthorizedAccount",
      "type": "error"
    },
    {
      "anonymous": false,
      "inputs": [
        {
          "indexed": true,
          "internalType": "address",
          "name": "owner",
          "type": "address"
        },
        {
          "indexed": true,
          "internalType": "address",
          "name": "approved",
          "type": "address"
        },
        {
          "indexed": true,
          "internalType": "uint256",
          "name": "tokenId",
          "type": "uint256"
        }
      ],
      "name": "Approval",
      "type": "event"
    },
    {
      "anonymous": false,
      "inputs": [
        {
          "indexed": true,
          "internalType": "address",
          "name": "owner",
          "type": "address"
        },
        {
          "indexed": true,
          "internalType": "address",
          "name": "operator",
          "type": "address"
        },
        {
          "indexed": false,
          "internalType": "bool",
          "name": "approved",
          "type": "bool"
        }
      ],
      "name": "ApprovalForAll",
      "type": "event"
    },
    {
      "anonymous": false,
      "inputs": [
        {
          "indexed": true,
          "internalType": "address",
          "name": "previousOwner",
          "type": "address"
        },
        {
          "indexed": true,
          "internalType": "address",
          "name": "newOwner",
          "type": "address"
        }
      ],
      "name": "OwnershipTransferred",
      "type": "event"
    },
    {
      "anonymous": false,
      "inputs": [
        {
          "indexed": true,
          "internalType": "bytes32",
          "name": "role",
          "type": "bytes32"
        },
        {
          "indexed": true,
          "internalType": "bytes32",
          "name": "previousAdminRole",
          "type": "bytes32"
        },
        {
          "indexed": true,
          "internalType": "bytes32",
          "name": "newAdminRole",
          "type": "bytes32"
        }
      ],
      "name": "RoleAdminChanged",
      "type": "event"
    },
    {
      "anonymous": false,
      "inputs": [
        {
          "indexed": true,
          "internalType": "bytes32",
          "name": "role",
          "type": "bytes32"
        },
        {
          "indexed": true,
          "internalType": "address",
          "name": "account",
          "type": "address"
        },
        {
          "indexed": true,
          "internalType": "address",
          "name": "sender",
          "type": "address"
        }
      ],
      "name": "RoleGranted",
      "type": "event"
    },
    {
      "anonymous": false,
      "inputs": [
        {
          "indexed": true,
          "internalType": "bytes32",
          "name": "role",
          "type": "bytes32"
        },
        {
          "indexed": true,
          "internalType": "address",
          "name": "account",
          "type": "address"
        },
        {
          "indexed": true,
          "internalType": "address",
          "name": "sender",
          "type": "address"
        }
      ],
      "name": "RoleRevoked",
      "type": "event"
    },
    {
      "anonymous": false,
      "inputs": [
        {
          "indexed": true,
          "internalType": "address",
          "name": "from",
          "type": "address"
        },
        {
          "indexed": true,
          "internalType": "address",
          "name": "to",
          "type": "address"
        },
        {
          "indexed": true,
          "internalType": "uint256",
          "name": "tokenId",
          "type": "uint256"
        }
      ],
      "name": "Transfer",
      "type": "event"
    },
    {
      "inputs": [],
      "name": "DEFAULT_ADMIN_ROLE",
      "outputs": [
        {
          "internalType": "bytes32",
          "name": "",
          "type": "bytes32"
        }
      ],
      "stateMutability": "view",
      "type": "function"
    },
    {
      "inputs": [],
      "name": "MINTER_ROLE",
      "outputs": [
        {
          "internalType": "bytes32",
          "name": "",
          "type": "bytes32"
        }
      ],
      "stateMutability": "view",
      "type": "function"
    },
    {
      "inputs": [
        {
          "internalType": "address",
          "name": "minterAddress",
          "type": "address"
        }
      ],
      "name": "addMinter",
      "outputs": [],
      "stateMutability": "nonpayable",
      "type": "function"
    },
    {
      "inputs": [
        {
          "internalType": "address",
          "name": "to",
          "type": "address"
        },
        {
          "internalType": "uint256",
          "name": "tokenId",
          "type": "uint256"
        }
      ],
      "name": "approve",
      "outputs": [],
      "stateMutability": "nonpayable",
      "type": "function"
    },
    {
      "inputs": [
        {
          "internalType": "address",
          "name": "owner",
          "type": "address"
        }
      ],
      "name": "balanceOf",
      "outputs": [
        {
          "internalType": "uint256",
          "name": "",
          "type": "uint256"
        }
      ],
      "stateMutability": "view",
      "type": "function"
    },
    {
      "inputs": [
        {
          "internalType": "uint256",
          "name": "tokenId",
          "type": "uint256"
        }
      ],
      "name": "getApproved",
      "outputs": [
        {
          "internalType": "address",
          "name": "",
          "type": "address"
        }
      ],
      "stateMutability": "view",
      "type": "function"
    },
    {
      "inputs": [
        {
          "internalType": "uint256",
          "name": "tokenId",
          "type": "uint256"
        }
      ],
      "name": "getCertificateDetails",
      "outputs": [
        {
          "internalType": "string",
          "name": "",
          "type": "string"
        },
        {
          "internalType": "string",
          "name": "",
          "type": "string"
        },
        {
          "internalType": "uint256",
          "name": "",
          "type": "uint256"
        },
        {
          "internalType": "string",
          "name": "",
          "type": "string"
        },
        {
          "internalType": "string",
          "name": "",
          "type": "string"
        }
      ],
      "stateMutability": "view",
      "type": "function"
    },
    {
      "inputs": [
        {
          "internalType": "bytes32",
          "name": "role",
          "type": "bytes32"
        }
      ],
      "name": "getRoleAdmin",
      "outputs": [
        {
          "internalType": "bytes32",
          "name": "",
          "type": "bytes32"
        }
      ],
      "stateMutability": "view",
      "type": "function"
    },
    {
      "inputs": [
        {
          "internalType": "bytes32",
          "name": "role",
          "type": "bytes32"
        },
        {
          "internalType": "address",
          "name": "account",
          "type": "address"
        }
      ],
      "name": "grantRole",
      "outputs": [],
      "stateMutability": "nonpayable",
      "type": "function"
    },
    {
      "inputs": [
        {
          "internalType": "bytes32",
          "name": "role",
          "type": "bytes32"
        },
        {
          "internalType": "address",
          "name": "account",
          "type": "address"
        }
      ],
      "name": "hasRole",
      "outputs": [
        {
          "internalType": "bool",
          "name": "",
          "type": "bool"
        }
      ],
      "stateMutability": "view",
      "type": "function"
    },
    {
      "inputs": [
        {
          "internalType": "address",
          "name": "owner",
          "type": "address"
        },
        {
          "internalType": "address",
          "name": "operator",
          "type": "address"
        }
      ],
      "name": "isApprovedForAll",
      "outputs": [
        {
          "internalType": "bool",
          "name": "",
          "type": "bool"
        }
      ],
      "stateMutability": "view",
      "type": "function"
    },
    {
      "inputs": [
        {
          "internalType": "uint256",
          "name": "newTokenId",
          "type": "uint256"
        },
        {
          "internalType": "address",
          "name": "recipient",
          "type": "address"
        },
        {
          "internalType": "string",
          "name": "name",
          "type": "string"
        },
        {
          "internalType": "string",
          "name": "course",
          "type": "string"
        },
        {
          "internalType": "uint256",
          "name": "date",
          "type": "uint256"
        },
        {
          "internalType": "string",
          "name": "cerType",
          "type": "string"
        },
        {
          "internalType": "string",
          "name": "imageUri",
          "type": "string"
        }
      ],
      "name": "mintCertificate",
      "outputs": [
        {
          "internalType": "uint256",
          "name": "",
          "type": "uint256"
        }
      ],
      "stateMutability": "nonpayable",
      "type": "function"
    },
    {
      "inputs": [],
      "name": "name",
      "outputs": [
        {
          "internalType": "string",
          "name": "",
          "type": "string"
        }
      ],
      "stateMutability": "view",
      "type": "function"
    },
    {
      "inputs": [],
      "name": "owner",
      "outputs": [
        {
          "internalType": "address",
          "name": "",
          "type": "address"
        }
      ],
      "stateMutability": "view",
      "type": "function"
    },
    {
      "inputs": [
        {
          "internalType": "uint256",
          "name": "tokenId",
          "type": "uint256"
        }
      ],
      "name": "ownerOf",
      "outputs": [
        {
          "internalType": "address",
          "name": "",
          "type": "address"
        }
      ],
      "stateMutability": "view",
      "type": "function"
    },
    {
      "inputs": [
        {
          "internalType": "address",
          "name": "minterAddress",
          "type": "address"
        }
      ],
      "name": "removeMinter",
      "outputs": [],
      "stateMutability": "nonpayable",
      "type": "function"
    },
    {
      "inputs": [],
      "name": "renounceOwnership",
      "outputs": [],
      "stateMutability": "nonpayable",
      "type": "function"
    },
    {
      "inputs": [
        {
          "internalType": "bytes32",
          "name": "role",
          "type": "bytes32"
        },
        {
          "internalType": "address",
          "name": "callerConfirmation",
          "type": "address"
        }
      ],
      "name": "renounceRole",
      "outputs": [],
      "stateMutability": "nonpayable",
      "type": "function"
    },
    {
      "inputs": [
        {
          "internalType": "bytes32",
          "name": "role",
          "type": "bytes32"
        },
        {
          "internalType": "address",
          "name": "account",
          "type": "address"
        }
      ],
      "name": "revokeRole",
      "outputs": [],
      "stateMutability": "nonpayable",
      "type": "function"
    },
    {
      "inputs": [
        {
          "internalType": "address",
          "name": "from",
          "type": "address"
        },
        {
          "internalType": "address",
          "name": "to",
          "type": "address"
        },
        {
          "internalType": "uint256",
          "name": "tokenId",
          "type": "uint256"
        }
      ],
      "name": "safeTransferFrom",
      "outputs": [],
      "stateMutability": "nonpayable",
      "type": "function"
    },
    {
      "inputs": [
        {
          "internalType": "address",
          "name": "from",
          "type": "address"
        },
        {
          "internalType": "address",
          "name": "to",
          "type": "address"
        },
        {
          "internalType": "uint256",
          "name": "tokenId",
          "type": "uint256"
        },
        {
          "internalType": "bytes",
          "name": "data",
          "type": "bytes"
        }
      ],
      "name": "safeTransferFrom",
      "outputs": [],
      "stateMutability": "nonpayable",
      "type": "function"
    },
    {
      "inputs": [
        {
          "internalType": "address",
          "name": "operator",
          "type": "address"
        },
        {
          "internalType": "bool",
          "name": "approved",
          "type": "bool"
        }
      ],
      "name": "setApprovalForAll",
      "outputs": [],
      "stateMutability": "nonpayable",
      "type": "function"
    },
    {
      "inputs": [
        {
          "internalType": "bytes4",
          "name": "interfaceId",
          "type": "bytes4"
        }
      ],
      "name": "supportsInterface",
      "outputs": [
        {
          "internalType": "bool",
          "name": "",
          "type": "bool"
        }
      ],
      "stateMutability": "view",
      "type": "function"
    },
    {
      "inputs": [],
      "name": "symbol",
      "outputs": [
        {
          "internalType": "string",
          "name": "",
          "type": "string"
        }
      ],
      "stateMutability": "view",
      "type": "function"
    },
    {
      "inputs": [
        {
          "internalType": "uint256",
          "name": "index",
          "type": "uint256"
        }
      ],
      "name": "tokenByIndex",
      "outputs": [
        {
          "internalType": "uint256",
          "name": "",
          "type": "uint256"
        }
      ],
      "stateMutability": "view",
      "type": "function"
    },
    {
      "inputs": [
        {
          "internalType": "address",
          "name": "owner",
          "type": "address"
        },
        {
          "internalType": "uint256",
          "name": "index",
          "type": "uint256"
        }
      ],
      "name": "tokenOfOwnerByIndex",
      "outputs": [
        {
          "internalType": "uint256",
          "name": "",
          "type": "uint256"
        }
      ],
      "stateMutability": "view",
      "type": "function"
    },
    {
      "inputs": [
        {
          "internalType": "uint256",
          "name": "tokenId",
          "type": "uint256"
        }
      ],
      "name": "tokenURI",
      "outputs": [
        {
          "internalType": "string",
          "name": "",
          "type": "string"
        }
      ],
      "stateMutability": "view",
      "type": "function"
    },
    {
      "inputs": [],
      "name": "totalSupply",
      "outputs": [
        {
          "internalType": "uint256",
          "name": "",
          "type": "uint256"
        }
      ],
      "stateMutability": "view",
      "type": "function"
    },
    {
      "inputs": [
        {
          "internalType": "address",
          "name": "from",
          "type": "address"
        },
        {
          "internalType": "address",
          "name": "to",
          "type": "address"
        },
        {
          "internalType": "uint256",
          "name": "tokenId",
          "type": "uint256"
        }
      ],
      "name": "transferFrom",
      "outputs": [],
      "stateMutability": "nonpayable",
      "type": "function"
    },
    {
      "inputs": [
        {
          "internalType": "address",
          "name": "newOwner",
          "type": "address"
        }
      ],
      "name": "transferOwnership",
      "outputs": [],
      "stateMutability": "nonpayable",
      "type": "function"
    }
  ],
  "bytecode": "0x60806040523480156200001157600080fd5b50336040518060400160405280600e81526020017f43657274696669636174654e46540000000000000000000000000000000000008152506040518060400160405280600681526020017f4345524e4654000000000000000000000000000000000000000000000000000081525081600090816200009091906200065a565b508060019081620000a291906200065a565b505050600073ffffffffffffffffffffffffffffffffffffffff168173ffffffffffffffffffffffffffffffffffffffff16036200011a5760006040517f1e4fbdf700000000000000000000000000000000000000000000000000000000815260040162000111919062000786565b60405180910390fd5b6200012b816200018d60201b60201c565b50620001416000801b336200025360201b60201c565b50620001747f9f2df0fed2c77648de5860a4cc508cd0818c85b8b8a1ab4ceeef8d981c8956a6336200025360201b60201c565b5062000187600c6200035760201b60201c565b620007a3565b6000600b60009054906101000a900473ffffffffffffffffffffffffffffffffffffffff16905081600b60006101000a81548173ffffffffffffffffffffffffffffffffffffffff021916908373ffffffffffffffffffffffffffffffffffffffff1602179055508173ffffffffffffffffffffffffffffffffffffffff168173ffffffffffffffffffffffffffffffffffffffff167f8be0079c531659141344cd1fd0a4f28419497f9722a3daafe3b4186f6b6457e060405160405180910390a35050565b60006200026783836200036d60201b60201c565b6200034c576001600a600085815260200190815260200160002060000160008473ffffffffffffffffffffffffffffffffffffffff1673ffffffffffffffffffffffffffffffffffffffff16815260200190815260200160002060006101000a81548160ff021916908315150217905550620002e8620003d860201b60201c565b73ffffffffffffffffffffffffffffffffffffffff168273ffffffffffffffffffffffffffffffffffffffff16847f2f8788117e7eff1d82e926ec794901d17c78024a50270940304540a733656f0d60405160405180910390a46001905062000351565b600090505b92915050565b6001816000016000828254019250508190555050565b6000600a600084815260200190815260200160002060000160008373ffffffffffffffffffffffffffffffffffffffff1673ffffffffffffffffffffffffffffffffffffffff16815260200190815260200160002060009054906101000a900460ff16905092915050565b600033905090565b600081519050919050565b7f4e487b7100000000000000000000000000000000000000000000000000000000600052604160045260246000fd5b7f4e487b7100000000000000000000000000000000000000000000000000000000600052602260045260246000fd5b600060028204905060018216806200046257607f821691505b6020821081036200047857620004776200041a565b5b50919050565b60008190508160005260206000209050919050565b60006020601f8301049050919050565b600082821b905092915050565b600060088302620004e27fffffffffffffffffffffffffffffffffffffffffffffffffffffffffffffffff82620004a3565b620004ee8683620004a3565b95508019841693508086168417925050509392505050565b6000819050919050565b6000819050919050565b60006200053b620005356200052f8462000506565b62000510565b62000506565b9050919050565b6000819050919050565b62000557836200051a565b6200056f620005668262000542565b848454620004b0565b825550505050565b600090565b6200058662000577565b620005938184846200054c565b505050565b5b81811015620005bb57620005af6000826200057c565b60018101905062000599565b5050565b601f8211156200060a57620005d4816200047e565b620005df8462000493565b81016020851015620005ef578190505b62000607620005fe8562000493565b83018262000598565b50505b505050565b600082821c905092915050565b60006200062f600019846008026200060f565b1980831691505092915050565b60006200064a83836200061c565b9150826002028217905092915050565b6200066582620003e0565b67ffffffffffffffff811115620006815762000680620003eb565b5b6200068d825462000449565b6200069a828285620005bf565b600060209050601f831160018114620006d25760008415620006bd578287015190505b620006c985826200063c565b86555062000739565b601f198416620006e2866200047e565b60005b828110156200070c57848901518255600182019150602085019450602081019050620006e5565b868310156200072c578489015162000728601f8916826200061c565b8355505b6001600288020188555050505b505050505050565b600073ffffffffffffffffffffffffffffffffffffffff82169050919050565b60006200076e8262000741565b9050919050565b620007808162000761565b82525050565b60006020820190506200079d600083018462000775565b92915050565b6138f680620007b36000396000f3fe608060405234801561001057600080fd5b50600436106101da5760003560e01c8063715018a611610104578063a901fe5e116100a2578063d547741f11610071578063d547741f1461057d578063e7d232a214610599578063e985e9c5146105c9578063f2fde38b146105f9576101da565b8063a901fe5e146104df578063b88d4fde14610513578063c87b56dd1461052f578063d53913931461055f576101da565b806395d89b41116100de57806395d89b411461046b578063983b2d5614610489578063a217fddf146104a5578063a22cb465146104c3576101da565b8063715018a6146104135780638da5cb5b1461041d57806391d148541461043b576101da565b80632f2ff15d1161017c57806342842e0e1161014b57806342842e0e146103675780634f6ccce7146103835780636352211e146103b357806370a08231146103e3576101da565b80632f2ff15d146102e35780632f745c59146102ff5780633092afd51461032f57806336568abe1461034b576101da565b8063095ea7b3116101b8578063095ea7b31461025d57806318160ddd1461027957806323b872dd14610297578063248a9ca3146102b3576101da565b806301ffc9a7146101df57806306fdde031461020f578063081812fc1461022d575b600080fd5b6101f960048036038101906101f49190612a3b565b610615565b6040516102069190612a83565b60405180910390f35b610217610627565b6040516102249190612b2e565b60405180910390f35b61024760048036038101906102429190612b86565b6106b9565b6040516102549190612bf4565b60405180910390f35b61027760048036038101906102729190612c3b565b6106d5565b005b6102816106eb565b60405161028e9190612c8a565b60405180910390f35b6102b160048036038101906102ac9190612ca5565b6106f8565b005b6102cd60048036038101906102c89190612d2e565b6107fa565b6040516102da9190612d6a565b60405180910390f35b6102fd60048036038101906102f89190612d85565b61081a565b005b61031960048036038101906103149190612c3b565b61083c565b6040516103269190612c8a565b60405180910390f35b61034960048036038101906103449190612dc5565b6108e5565b005b61036560048036038101906103609190612d85565b61091a565b005b610381600480360381019061037c9190612ca5565b610995565b005b61039d60048036038101906103989190612b86565b6109b5565b6040516103aa9190612c8a565b60405180910390f35b6103cd60048036038101906103c89190612b86565b610a2b565b6040516103da9190612bf4565b60405180910390f35b6103fd60048036038101906103f89190612dc5565b610a3d565b60405161040a9190612c8a565b60405180910390f35b61041b610af7565b005b610425610b0b565b6040516104329190612bf4565b60405180910390f35b61045560048036038101906104509190612d85565b610b35565b6040516104629190612a83565b60405180910390f35b610473610ba0565b6040516104809190612b2e565b60405180910390f35b6104a3600480360381019061049e9190612dc5565b610c32565b005b6104ad610c67565b6040516104ba9190612d6a565b60405180910390f35b6104dd60048036038101906104d89190612e1e565b610c6e565b005b6104f960048036038101906104f49190612b86565b610c84565b60405161050a959493929190612e5e565b60405180910390f35b61052d60048036038101906105289190613002565b610fea565b005b61054960048036038101906105449190612b86565b611007565b6040516105569190612b2e565b60405180910390f35b610567611070565b6040516105749190612d6a565b60405180910390f35b61059760048036038101906105929190612d85565b611094565b005b6105b360048036038101906105ae9190613126565b6110b6565b6040516105c09190612c8a565b60405180910390f35b6105e360048036038101906105de9190613238565b6111aa565b6040516105f09190612a83565b60405180910390f35b610613600480360381019061060e9190612dc5565b61123e565b005b6000610620826112c4565b9050919050565b606060008054610636906132a7565b80601f0160208091040260200160405190810160405280929190818152602001828054610662906132a7565b80156106af5780601f10610684576101008083540402835291602001916106af565b820191906000526020600020905b81548152906001019060200180831161069257829003601f168201915b5050505050905090565b60006106c48261133e565b506106ce826113c6565b9050919050565b6106e782826106e2611403565b61140b565b5050565b6000600880549050905090565b600073ffffffffffffffffffffffffffffffffffffffff168273ffffffffffffffffffffffffffffffffffffffff160361076a5760006040517f64a0ae920000000000000000000000000000000000000000000000000000000081526004016107619190612bf4565b60405180910390fd5b600061077e8383610779611403565b61141d565b90508373ffffffffffffffffffffffffffffffffffffffff168173ffffffffffffffffffffffffffffffffffffffff16146107f4578382826040517f64283d7b0000000000000000000000000000000000000000000000000000000081526004016107eb939291906132d8565b60405180910390fd5b50505050565b6000600a6000838152602001908152602001600020600101549050919050565b610823826107fa565b61082c8161153a565b610836838361154e565b50505050565b600061084783610a3d565b821061088c5782826040517fa57d13dc00000000000000000000000000000000000000000000000000000000815260040161088392919061330f565b60405180910390fd5b600660008473ffffffffffffffffffffffffffffffffffffffff1673ffffffffffffffffffffffffffffffffffffffff168152602001908152602001600020600083815260200190815260200160002054905092915050565b6108ed611640565b6109177f9f2df0fed2c77648de5860a4cc508cd0818c85b8b8a1ab4ceeef8d981c8956a682611094565b50565b610922611403565b73ffffffffffffffffffffffffffffffffffffffff168173ffffffffffffffffffffffffffffffffffffffff1614610986576040517f6697b23200000000000000000000000000000000000000000000000000000000815260040160405180910390fd5b61099082826116c7565b505050565b6109b083838360405180602001604052806000815250610fea565b505050565b60006109bf6106eb565b8210610a05576000826040517fa57d13dc0000000000000000000000000000000000000000000000000000000081526004016109fc92919061330f565b60405180910390fd5b60088281548110610a1957610a18613338565b5b90600052602060002001549050919050565b6000610a368261133e565b9050919050565b60008073ffffffffffffffffffffffffffffffffffffffff168273ffffffffffffffffffffffffffffffffffffffff1603610ab05760006040517f89c62b64000000000000000000000000000000000000000000000000000000008152600401610aa79190612bf4565b60405180910390fd5b600360008373ffffffffffffffffffffffffffffffffffffffff1673ffffffffffffffffffffffffffffffffffffffff168152602001908152602001600020549050919050565b610aff611640565b610b0960006117ba565b565b6000600b60009054906101000a900473ffffffffffffffffffffffffffffffffffffffff16905090565b6000600a600084815260200190815260200160002060000160008373ffffffffffffffffffffffffffffffffffffffff1673ffffffffffffffffffffffffffffffffffffffff16815260200190815260200160002060009054906101000a900460ff16905092915050565b606060018054610baf906132a7565b80601f0160208091040260200160405190810160405280929190818152602001828054610bdb906132a7565b8015610c285780601f10610bfd57610100808354040283529160200191610c28565b820191906000526020600020905b815481529060010190602001808311610c0b57829003601f168201915b5050505050905090565b610c3a611640565b610c647f9f2df0fed2c77648de5860a4cc508cd0818c85b8b8a1ab4ceeef8d981c8956a68261081a565b50565b6000801b81565b610c80610c79611403565b8383611880565b5050565b60608060006060803073ffffffffffffffffffffffffffffffffffffffff16636352211e876040518263ffffffff1660e01b8152600401610cc59190612c8a565b602060405180830381865afa925050508015610cff57506040513d601f19601f82011682018060405250810190610cfc919061337c565b60015b610d3e576040517f08c379a0000000000000000000000000000000000000000000000000000000008152600401610d35906133f5565b60405180910390fd5b6000600d60008981526020019081526020016000206040518060c001604052908160008201548152602001600182018054610d78906132a7565b80601f0160208091040260200160405190810160405280929190818152602001828054610da4906132a7565b8015610df15780601f10610dc657610100808354040283529160200191610df1565b820191906000526020600020905b815481529060010190602001808311610dd457829003601f168201915b50505050508152602001600282018054610e0a906132a7565b80601f0160208091040260200160405190810160405280929190818152602001828054610e36906132a7565b8015610e835780601f10610e5857610100808354040283529160200191610e83565b820191906000526020600020905b815481529060010190602001808311610e6657829003601f168201915b5050505050815260200160038201548152602001600482018054610ea6906132a7565b80601f0160208091040260200160405190810160405280929190818152602001828054610ed2906132a7565b8015610f1f5780601f10610ef457610100808354040283529160200191610f1f565b820191906000526020600020905b815481529060010190602001808311610f0257829003601f168201915b50505050508152602001600582018054610f38906132a7565b80601f0160208091040260200160405190810160405280929190818152602001828054610f64906132a7565b8015610fb15780601f10610f8657610100808354040283529160200191610fb1565b820191906000526020600020905b815481529060010190602001808311610f9457829003601f168201915b505050505081525050905080602001518160400151826060015183608001518460a0015196509650965096509650505091939590929450565b610ff58484846106f8565b611001848484846119ef565b50505050565b60606110128261133e565b50600061101d611ba6565b9050600081511161103d5760405180602001604052806000815250611068565b8061104784611bbd565b604051602001611058929190613451565b6040516020818303038152906040525b915050919050565b7f9f2df0fed2c77648de5860a4cc508cd0818c85b8b8a1ab4ceeef8d981c8956a681565b61109d826107fa565b6110a68161153a565b6110b083836116c7565b50505050565b60007f9f2df0fed2c77648de5860a4cc508cd0818c85b8b8a1ab4ceeef8d981c8956a66110e28161153a565b6110ec888a611c8b565b6040518060c001604052808a815260200188815260200187815260200186815260200185815260200184815250600d60008b815260200190815260200160002060008201518160000155602082015181600101908161114b9190613621565b5060408201518160020190816111619190613621565b506060820151816003015560808201518160040190816111819190613621565b5060a08201518160050190816111979190613621565b5090505088915050979650505050505050565b6000600560008473ffffffffffffffffffffffffffffffffffffffff1673ffffffffffffffffffffffffffffffffffffffff16815260200190815260200160002060008373ffffffffffffffffffffffffffffffffffffffff1673ffffffffffffffffffffffffffffffffffffffff16815260200190815260200160002060009054906101000a900460ff16905092915050565b611246611640565b600073ffffffffffffffffffffffffffffffffffffffff168173ffffffffffffffffffffffffffffffffffffffff16036112b85760006040517f1e4fbdf70000000000000000000000000000000000000000000000000000000081526004016112af9190612bf4565b60405180910390fd5b6112c1816117ba565b50565b60007f7965db0b000000000000000000000000000000000000000000000000000000007bffffffffffffffffffffffffffffffffffffffffffffffffffffffff1916827bffffffffffffffffffffffffffffffffffffffffffffffffffffffff19161480611337575061133682611ca9565b5b9050919050565b60008061134a83611d23565b9050600073ffffffffffffffffffffffffffffffffffffffff168173ffffffffffffffffffffffffffffffffffffffff16036113bd57826040517f7e2732890000000000000000000000000000000000000000000000000000000081526004016113b49190612c8a565b60405180910390fd5b80915050919050565b60006004600083815260200190815260200160002060009054906101000a900473ffffffffffffffffffffffffffffffffffffffff169050919050565b600033905090565b6114188383836001611d60565b505050565b60008061142b858585611f25565b9050600073ffffffffffffffffffffffffffffffffffffffff168173ffffffffffffffffffffffffffffffffffffffff160361146f5761146a8461213f565b6114ae565b8473ffffffffffffffffffffffffffffffffffffffff168173ffffffffffffffffffffffffffffffffffffffff16146114ad576114ac8185612188565b5b5b600073ffffffffffffffffffffffffffffffffffffffff168573ffffffffffffffffffffffffffffffffffffffff16036114f0576114eb846122e9565b61152f565b8473ffffffffffffffffffffffffffffffffffffffff168173ffffffffffffffffffffffffffffffffffffffff161461152e5761152d85856123ba565b5b5b809150509392505050565b61154b81611546611403565b612445565b50565b600061155a8383610b35565b611635576001600a600085815260200190815260200160002060000160008473ffffffffffffffffffffffffffffffffffffffff1673ffffffffffffffffffffffffffffffffffffffff16815260200190815260200160002060006101000a81548160ff0219169083151502179055506115d2611403565b73ffffffffffffffffffffffffffffffffffffffff168273ffffffffffffffffffffffffffffffffffffffff16847f2f8788117e7eff1d82e926ec794901d17c78024a50270940304540a733656f0d60405160405180910390a46001905061163a565b600090505b92915050565b611648611403565b73ffffffffffffffffffffffffffffffffffffffff16611666610b0b565b73ffffffffffffffffffffffffffffffffffffffff16146116c557611689611403565b6040517f118cdaa70000000000000000000000000000000000000000000000000000000081526004016116bc9190612bf4565b60405180910390fd5b565b60006116d38383610b35565b156117af576000600a600085815260200190815260200160002060000160008473ffffffffffffffffffffffffffffffffffffffff1673ffffffffffffffffffffffffffffffffffffffff16815260200190815260200160002060006101000a81548160ff02191690831515021790555061174c611403565b73ffffffffffffffffffffffffffffffffffffffff168273ffffffffffffffffffffffffffffffffffffffff16847ff6391f5c32d9c69d2a47ea670b442974b53935d1edc7fd64eb21e047a839171b60405160405180910390a4600190506117b4565b600090505b92915050565b6000600b60009054906101000a900473ffffffffffffffffffffffffffffffffffffffff16905081600b60006101000a81548173ffffffffffffffffffffffffffffffffffffffff021916908373ffffffffffffffffffffffffffffffffffffffff1602179055508173ffffffffffffffffffffffffffffffffffffffff168173ffffffffffffffffffffffffffffffffffffffff167f8be0079c531659141344cd1fd0a4f28419497f9722a3daafe3b4186f6b6457e060405160405180910390a35050565b600073ffffffffffffffffffffffffffffffffffffffff168273ffffffffffffffffffffffffffffffffffffffff16036118f157816040517f5b08ba180000000000000000000000000000000000000000000000000000000081526004016118e89190612bf4565b60405180910390fd5b80600560008573ffffffffffffffffffffffffffffffffffffffff1673ffffffffffffffffffffffffffffffffffffffff16815260200190815260200160002060008473ffffffffffffffffffffffffffffffffffffffff1673ffffffffffffffffffffffffffffffffffffffff16815260200190815260200160002060006101000a81548160ff0219169083151502179055508173ffffffffffffffffffffffffffffffffffffffff168373ffffffffffffffffffffffffffffffffffffffff167f17307eab39ab6107e8899845ad3d59bd9653f200f220920489ca2b5937696c31836040516119e29190612a83565b60405180910390a3505050565b60008373ffffffffffffffffffffffffffffffffffffffff163b1115611ba0578273ffffffffffffffffffffffffffffffffffffffff1663150b7a02611a33611403565b8685856040518563ffffffff1660e01b8152600401611a559493929190613748565b6020604051808303816000875af1925050508015611a9157506040513d601f19601f82011682018060405250810190611a8e91906137a9565b60015b611b15573d8060008114611ac1576040519150601f19603f3d011682016040523d82523d6000602084013e611ac6565b606091505b506000815103611b0d57836040517f64a0ae92000000000000000000000000000000000000000000000000000000008152600401611b049190612bf4565b60405180910390fd5b805181602001fd5b63150b7a0260e01b7bffffffffffffffffffffffffffffffffffffffffffffffffffffffff1916817bffffffffffffffffffffffffffffffffffffffffffffffffffffffff191614611b9e57836040517f64a0ae92000000000000000000000000000000000000000000000000000000008152600401611b959190612bf4565b60405180910390fd5b505b50505050565b606060405180602001604052806000815250905090565b606060006001611bcc84612496565b01905060008167ffffffffffffffff811115611beb57611bea612ed7565b5b6040519080825280601f01601f191660200182016040528015611c1d5781602001600182028036833780820191505090505b509050600082602001820190505b600115611c80578080600190039150507f3031323334353637383961626364656600000000000000000000000000000000600a86061a8153600a8581611c7457611c736137d6565b5b04945060008503611c2b575b819350505050919050565b611ca58282604051806020016040528060008152506125e9565b5050565b60007f780e9d63000000000000000000000000000000000000000000000000000000007bffffffffffffffffffffffffffffffffffffffffffffffffffffffff1916827bffffffffffffffffffffffffffffffffffffffffffffffffffffffff19161480611d1c5750611d1b82612605565b5b9050919050565b60006002600083815260200190815260200160002060009054906101000a900473ffffffffffffffffffffffffffffffffffffffff169050919050565b8080611d995750600073ffffffffffffffffffffffffffffffffffffffff168273ffffffffffffffffffffffffffffffffffffffff1614155b15611ecd576000611da98461133e565b9050600073ffffffffffffffffffffffffffffffffffffffff168373ffffffffffffffffffffffffffffffffffffffff1614158015611e1457508273ffffffffffffffffffffffffffffffffffffffff168173ffffffffffffffffffffffffffffffffffffffff1614155b8015611e275750611e2581846111aa565b155b15611e6957826040517fa9fbf51f000000000000000000000000000000000000000000000000000000008152600401611e609190612bf4565b60405180910390fd5b8115611ecb57838573ffffffffffffffffffffffffffffffffffffffff168273ffffffffffffffffffffffffffffffffffffffff167f8c5be1e5ebec7d5bd14f71427d1e84f3dd0314c0f7b2291e5b200ac8c7c3b92560405160405180910390a45b505b836004600085815260200190815260200160002060006101000a81548173ffffffffffffffffffffffffffffffffffffffff021916908373ffffffffffffffffffffffffffffffffffffffff16021790555050505050565b600080611f3184611d23565b9050600073ffffffffffffffffffffffffffffffffffffffff168373ffffffffffffffffffffffffffffffffffffffff1614611f7357611f728184866126e7565b5b600073ffffffffffffffffffffffffffffffffffffffff168173ffffffffffffffffffffffffffffffffffffffff161461200457611fb5600085600080611d60565b6001600360008373ffffffffffffffffffffffffffffffffffffffff1673ffffffffffffffffffffffffffffffffffffffff168152602001908152602001600020600082825403925050819055505b600073ffffffffffffffffffffffffffffffffffffffff168573ffffffffffffffffffffffffffffffffffffffff1614612087576001600360008773ffffffffffffffffffffffffffffffffffffffff1673ffffffffffffffffffffffffffffffffffffffff168152602001908152602001600020600082825401925050819055505b846002600086815260200190815260200160002060006101000a81548173ffffffffffffffffffffffffffffffffffffffff021916908373ffffffffffffffffffffffffffffffffffffffff160217905550838573ffffffffffffffffffffffffffffffffffffffff168273ffffffffffffffffffffffffffffffffffffffff167fddf252ad1be2c89b69c2b068fc378daa952ba7f163c4a11628f55a4df523b3ef60405160405180910390a4809150509392505050565b6008805490506009600083815260200190815260200160002081905550600881908060018154018082558091505060019003906000526020600020016000909190919091505550565b600061219383610a3d565b9050600060076000848152602001908152602001600020549050818114612278576000600660008673ffffffffffffffffffffffffffffffffffffffff1673ffffffffffffffffffffffffffffffffffffffff168152602001908152602001600020600084815260200190815260200160002054905080600660008773ffffffffffffffffffffffffffffffffffffffff1673ffffffffffffffffffffffffffffffffffffffff168152602001908152602001600020600084815260200190815260200160002081905550816007600083815260200190815260200160002081905550505b6007600084815260200190815260200160002060009055600660008573ffffffffffffffffffffffffffffffffffffffff1673ffffffffffffffffffffffffffffffffffffffff16815260200190815260200160002060008381526020019081526020016000206000905550505050565b600060016008805490506122fd9190613834565b905060006009600084815260200190815260200160002054905060006008838154811061232d5761232c613338565b5b90600052602060002001549050806008838154811061234f5761234e613338565b5b90600052602060002001819055508160096000838152602001908152602001600020819055506009600085815260200190815260200160002060009055600880548061239e5761239d613868565b5b6001900381819060005260206000200160009055905550505050565b600060016123c784610a3d565b6123d19190613834565b905081600660008573ffffffffffffffffffffffffffffffffffffffff1673ffffffffffffffffffffffffffffffffffffffff168152602001908152602001600020600083815260200190815260200160002081905550806007600084815260200190815260200160002081905550505050565b61244f8282610b35565b6124925780826040517fe2517d3f000000000000000000000000000000000000000000000000000000008152600401612489929190613897565b60405180910390fd5b5050565b600080600090507a184f03e93ff9f4daa797ed6e38ed64bf6a1f01000000000000000083106124f4577a184f03e93ff9f4daa797ed6e38ed64bf6a1f01000000000000000083816124ea576124e96137d6565b5b0492506040810190505b6d04ee2d6d415b85acef81000000008310612531576d04ee2d6d415b85acef81000000008381612527576125266137d6565b5b0492506020810190505b662386f26fc10000831061256057662386f26fc100008381612556576125556137d6565b5b0492506010810190505b6305f5e1008310612589576305f5e100838161257f5761257e6137d6565b5b0492506008810190505b61271083106125ae5761271083816125a4576125a36137d6565b5b0492506004810190505b606483106125d157606483816125c7576125c66137d6565b5b0492506002810190505b600a83106125e0576001810190505b80915050919050565b6125f383836127ab565b61260060008484846119ef565b505050565b60007f80ac58cd000000000000000000000000000000000000000000000000000000007bffffffffffffffffffffffffffffffffffffffffffffffffffffffff1916827bffffffffffffffffffffffffffffffffffffffffffffffffffffffff191614806126d057507f5b5e139f000000000000000000000000000000000000000000000000000000007bffffffffffffffffffffffffffffffffffffffffffffffffffffffff1916827bffffffffffffffffffffffffffffffffffffffffffffffffffffffff1916145b806126e057506126df826128a4565b5b9050919050565b6126f283838361290e565b6127a657600073ffffffffffffffffffffffffffffffffffffffff168373ffffffffffffffffffffffffffffffffffffffff160361276757806040517f7e27328900000000000000000000000000000000000000000000000000000000815260040161275e9190612c8a565b60405180910390fd5b81816040517f177e802f00000000000000000000000000000000000000000000000000000000815260040161279d92919061330f565b60405180910390fd5b505050565b600073ffffffffffffffffffffffffffffffffffffffff168273ffffffffffffffffffffffffffffffffffffffff160361281d5760006040517f64a0ae920000000000000000000000000000000000000000000000000000000081526004016128149190612bf4565b60405180910390fd5b600061282b8383600061141d565b9050600073ffffffffffffffffffffffffffffffffffffffff168173ffffffffffffffffffffffffffffffffffffffff161461289f5760006040517f73c6ac6e0000000000000000000000000000000000000000000000000000000081526004016128969190612bf4565b60405180910390fd5b505050565b60007f01ffc9a7000000000000000000000000000000000000000000000000000000007bffffffffffffffffffffffffffffffffffffffffffffffffffffffff1916827bffffffffffffffffffffffffffffffffffffffffffffffffffffffff1916149050919050565b60008073ffffffffffffffffffffffffffffffffffffffff168373ffffffffffffffffffffffffffffffffffffffff16141580156129c657508273ffffffffffffffffffffffffffffffffffffffff168473ffffffffffffffffffffffffffffffffffffffff161480612987575061298684846111aa565b5b806129c557508273ffffffffffffffffffffffffffffffffffffffff166129ad836113c6565b73ffffffffffffffffffffffffffffffffffffffff16145b5b90509392505050565b6000604051905090565b600080fd5b600080fd5b60007fffffffff0000000000000000000000000000000000000000000000000000000082169050919050565b612a18816129e3565b8114612a2357600080fd5b50565b600081359050612a3581612a0f565b92915050565b600060208284031215612a5157612a506129d9565b5b6000612a5f84828501612a26565b91505092915050565b60008115159050919050565b612a7d81612a68565b82525050565b6000602082019050612a986000830184612a74565b92915050565b600081519050919050565b600082825260208201905092915050565b60005b83811015612ad8578082015181840152602081019050612abd565b60008484015250505050565b6000601f19601f8301169050919050565b6000612b0082612a9e565b612b0a8185612aa9565b9350612b1a818560208601612aba565b612b2381612ae4565b840191505092915050565b60006020820190508181036000830152612b488184612af5565b905092915050565b6000819050919050565b612b6381612b50565b8114612b6e57600080fd5b50565b600081359050612b8081612b5a565b92915050565b600060208284031215612b9c57612b9b6129d9565b5b6000612baa84828501612b71565b91505092915050565b600073ffffffffffffffffffffffffffffffffffffffff82169050919050565b6000612bde82612bb3565b9050919050565b612bee81612bd3565b82525050565b6000602082019050612c096000830184612be5565b92915050565b612c1881612bd3565b8114612c2357600080fd5b50565b600081359050612c3581612c0f565b92915050565b60008060408385031215612c5257612c516129d9565b5b6000612c6085828601612c26565b9250506020612c7185828601612b71565b9150509250929050565b612c8481612b50565b82525050565b6000602082019050612c9f6000830184612c7b565b92915050565b600080600060608486031215612cbe57612cbd6129d9565b5b6000612ccc86828701612c26565b9350506020612cdd86828701612c26565b9250506040612cee86828701612b71565b9150509250925092565b6000819050919050565b612d0b81612cf8565b8114612d1657600080fd5b50565b600081359050612d2881612d02565b92915050565b600060208284031215612d4457612d436129d9565b5b6000612d5284828501612d19565b91505092915050565b612d6481612cf8565b82525050565b6000602082019050612d7f6000830184612d5b565b92915050565b60008060408385031215612d9c57612d9b6129d9565b5b6000612daa85828601612d19565b9250506020612dbb85828601612c26565b9150509250929050565b600060208284031215612ddb57612dda6129d9565b5b6000612de984828501612c26565b91505092915050565b612dfb81612a68565b8114612e0657600080fd5b50565b600081359050612e1881612df2565b92915050565b60008060408385031215612e3557612e346129d9565b5b6000612e4385828601612c26565b9250506020612e5485828601612e09565b9150509250929050565b600060a0820190508181036000830152612e788188612af5565b90508181036020830152612e8c8187612af5565b9050612e9b6040830186612c7b565b8181036060830152612ead8185612af5565b90508181036080830152612ec18184612af5565b90509695505050505050565b600080fd5b600080fd5b7f4e487b7100000000000000000000000000000000000000000000000000000000600052604160045260246000fd5b612f0f82612ae4565b810181811067ffffffffffffffff82111715612f2e57612f2d612ed7565b5b80604052505050565b6000612f416129cf565b9050612f4d8282612f06565b919050565b600067ffffffffffffffff821115612f6d57612f6c612ed7565b5b612f7682612ae4565b9050602081019050919050565b82818337600083830152505050565b6000612fa5612fa084612f52565b612f37565b905082815260208101848484011115612fc157612fc0612ed2565b5b612fcc848285612f83565b509392505050565b600082601f830112612fe957612fe8612ecd565b5b8135612ff9848260208601612f92565b91505092915050565b6000806000806080858703121561301c5761301b6129d9565b5b600061302a87828801612c26565b945050602061303b87828801612c26565b935050604061304c87828801612b71565b925050606085013567ffffffffffffffff81111561306d5761306c6129de565b5b61307987828801612fd4565b91505092959194509250565b600067ffffffffffffffff8211156130a05761309f612ed7565b5b6130a982612ae4565b9050602081019050919050565b60006130c96130c484613085565b612f37565b9050828152602081018484840111156130e5576130e4612ed2565b5b6130f0848285612f83565b509392505050565b600082601f83011261310d5761310c612ecd565b5b813561311d8482602086016130b6565b91505092915050565b600080600080600080600060e0888a031215613145576131446129d9565b5b60006131538a828b01612b71565b97505060206131648a828b01612c26565b965050604088013567ffffffffffffffff811115613185576131846129de565b5b6131918a828b016130f8565b955050606088013567ffffffffffffffff8111156131b2576131b16129de565b5b6131be8a828b016130f8565b94505060806131cf8a828b01612b71565b93505060a088013567ffffffffffffffff8111156131f0576131ef6129de565b5b6131fc8a828b016130f8565b92505060c088013567ffffffffffffffff81111561321d5761321c6129de565b5b6132298a828b016130f8565b91505092959891949750929550565b6000806040838503121561324f5761324e6129d9565b5b600061325d85828601612c26565b925050602061326e85828601612c26565b9150509250929050565b7f4e487b7100000000000000000000000000000000000000000000000000000000600052602260045260246000fd5b600060028204905060018216806132bf57607f821691505b6020821081036132d2576132d1613278565b5b50919050565b60006060820190506132ed6000830186612be5565b6132fa6020830185612c7b565b6133076040830184612be5565b949350505050565b60006040820190506133246000830185612be5565b6133316020830184612c7b565b9392505050565b7f4e487b7100000000000000000000000000000000000000000000000000000000600052603260045260246000fd5b60008151905061337681612c0f565b92915050565b600060208284031215613392576133916129d9565b5b60006133a084828501613367565b91505092915050565b7f546f6b656e20494420646f6573206e6f74206578697374000000000000000000600082015250565b60006133df601783612aa9565b91506133ea826133a9565b602082019050919050565b6000602082019050818103600083015261340e816133d2565b9050919050565b600081905092915050565b600061342b82612a9e565b6134358185613415565b9350613445818560208601612aba565b80840191505092915050565b600061345d8285613420565b91506134698284613420565b91508190509392505050565b60008190508160005260206000209050919050565b60006020601f8301049050919050565b600082821b905092915050565b6000600883026134d77fffffffffffffffffffffffffffffffffffffffffffffffffffffffffffffffff8261349a565b6134e1868361349a565b95508019841693508086168417925050509392505050565b6000819050919050565b600061351e61351961351484612b50565b6134f9565b612b50565b9050919050565b6000819050919050565b61353883613503565b61354c61354482613525565b8484546134a7565b825550505050565b600090565b613561613554565b61356c81848461352f565b505050565b5b8181101561359057613585600082613559565b600181019050613572565b5050565b601f8211156135d5576135a681613475565b6135af8461348a565b810160208510156135be578190505b6135d26135ca8561348a565b830182613571565b50505b505050565b600082821c905092915050565b60006135f8600019846008026135da565b1980831691505092915050565b600061361183836135e7565b9150826002028217905092915050565b61362a82612a9e565b67ffffffffffffffff81111561364357613642612ed7565b5b61364d82546132a7565b613658828285613594565b600060209050601f83116001811461368b5760008415613679578287015190505b6136838582613605565b8655506136eb565b601f19841661369986613475565b60005b828110156136c15784890151825560018201915060208501945060208101905061369c565b868310156136de57848901516136da601f8916826135e7565b8355505b6001600288020188555050505b505050505050565b600081519050919050565b600082825260208201905092915050565b600061371a826136f3565b61372481856136fe565b9350613734818560208601612aba565b61373d81612ae4565b840191505092915050565b600060808201905061375d6000830187612be5565b61376a6020830186612be5565b6137776040830185612c7b565b8181036060830152613789818461370f565b905095945050505050565b6000815190506137a381612a0f565b92915050565b6000602082840312156137bf576137be6129d9565b5b60006137cd84828501613794565b91505092915050565b7f4e487b7100000000000000000000000000000000000000000000000000000000600052601260045260246000fd5b7f4e487b7100000000000000000000000000000000000000000000000000000000600052601160045260246000fd5b600061383f82612b50565b915061384a83612b50565b925082820390508181111561386257613861613805565b5b92915050565b7f4e487b7100000000000000000000000000000000000000000000000000000000600052603160045260246000fd5b60006040820190506138ac6000830185612be5565b6138b96020830184612d5b565b939250505056fea2646970667358221220a2efde9fe4f2de168b70d35bc278b040947a3d7062b823844478d33d9b0e76f464736f6c63430008180033",
  "linkReferences": {},
  "deployedLinkReferences": {}
}