{
  "_format": "hh-sol-artifact-1",
  "contractName": "EduManage",
  "sourceName": "contracts/EduManage.sol",
  "abi": [
    {
      "inputs": [
        {
          "internalType": "address",
          "name": "_tokenAddress",
          "type": "address"
        },
        {
          "internalType": "address",
          "name": "_NFTAddress",
          "type": "address"
        }
      ],
      "stateMutability": "nonpayable",
      "type": "constructor"
    },
    {
      "anonymous": false,
      "inputs": [
        {
          "indexed": false,
          "internalType": "address",
          "name": "recipient",
          "type": "address"
        },
        {
          "indexed": false,
          "internalType": "uint256",
          "name": "tokenId",
          "type": "uint256"
        },
        {
          "indexed": false,
          "internalType": "string",
          "name": "name",
          "type": "string"
        },
        {
          "indexed": false,
          "internalType": "string",
          "name": "course",
          "type": "string"
        },
        {
          "indexed": false,
          "internalType": "uint256",
          "name": "date",
          "type": "uint256"
        },
        {
          "indexed": false,
          "internalType": "string",
          "name": "cerType",
          "type": "string"
        },
        {
          "indexed": false,
          "internalType": "string",
          "name": "imageUri",
          "type": "string"
        }
      ],
      "name": "CertificateMinted",
      "type": "event"
    },
    {
      "inputs": [],
      "name": "CertNFT",
      "outputs": [
        {
          "internalType": "contract CertificateNFT",
          "name": "",
          "type": "address"
        }
      ],
      "stateMutability": "view",
      "type": "function"
    },
    {
      "inputs": [],
      "name": "LINK",
      "outputs": [
        {
          "internalType": "contract LINKToken",
          "name": "",
          "type": "address"
        }
      ],
      "stateMutability": "view",
      "type": "function"
    },
    {
      "inputs": [
        {
          "internalType": "uint256",
          "name": "course_id",
          "type": "uint256"
        },
        {
          "internalType": "string",
          "name": "name",
          "type": "string"
        },
        {
          "internalType": "uint256",
          "name": "price",
          "type": "uint256"
        },
        {
          "internalType": "uint256",
          "name": "reward",
          "type": "uint256"
        },
        {
          "internalType": "string",
          "name": "courseType",
          "type": "string"
        },
        {
          "internalType": "string",
          "name": "hashCourse",
          "type": "string"
        }
      ],
      "name": "addCourse",
      "outputs": [],
      "stateMutability": "nonpayable",
      "type": "function"
    },
    {
      "inputs": [
        {
          "internalType": "uint256",
          "name": "post_id",
          "type": "uint256"
        },
        {
          "internalType": "address",
          "name": "owner_add",
          "type": "address"
        }
      ],
      "name": "addPost",
      "outputs": [],
      "stateMutability": "nonpayable",
      "type": "function"
    },
    {
      "inputs": [
        {
          "internalType": "address",
          "name": "stu_add",
          "type": "address"
        },
        {
          "internalType": "uint256",
          "name": "stu_id",
          "type": "uint256"
        },
        {
          "internalType": "string",
          "name": "name",
          "type": "string"
        }
      ],
      "name": "addStudent",
      "outputs": [],
      "stateMutability": "nonpayable",
      "type": "function"
    },
    {
      "inputs": [
        {
          "internalType": "uint256",
          "name": "stu_id",
          "type": "uint256"
        },
        {
          "internalType": "uint256",
          "name": "course_id",
          "type": "uint256"
        }
      ],
      "name": "buyCourse",
      "outputs": [],
      "stateMutability": "payable",
      "type": "function"
    },
    {
      "inputs": [
        {
          "internalType": "uint256",
          "name": "stu_id",
          "type": "uint256"
        },
        {
          "internalType": "uint256",
          "name": "course_id",
          "type": "uint256"
        },
        {
          "internalType": "uint256",
          "name": "token_id",
          "type": "uint256"
        },
        {
          "internalType": "string",
          "name": "image_uri",
          "type": "string"
        }
      ],
      "name": "checkAndTransferRewardCourse",
      "outputs": [],
      "stateMutability": "payable",
      "type": "function"
    },
    {
      "inputs": [
        {
          "internalType": "uint256",
          "name": "post_id",
          "type": "uint256"
        },
        {
          "internalType": "uint256",
          "name": "point",
          "type": "uint256"
        }
      ],
      "name": "checkAndTransferRewardPost",
      "outputs": [],
      "stateMutability": "payable",
      "type": "function"
    },
    {
      "inputs": [
        {
          "internalType": "uint256",
          "name": "stu_id",
          "type": "uint256"
        },
        {
          "internalType": "uint256",
          "name": "course_id",
          "type": "uint256"
        }
      ],
      "name": "checkEnrolledCourse",
      "outputs": [
        {
          "internalType": "bool",
          "name": "",
          "type": "bool"
        }
      ],
      "stateMutability": "view",
      "type": "function"
    },
    {
      "inputs": [],
      "name": "decimals",
      "outputs": [
        {
          "internalType": "uint256",
          "name": "",
          "type": "uint256"
        }
      ],
      "stateMutability": "view",
      "type": "function"
    },
    {
      "inputs": [
        {
          "internalType": "uint256",
          "name": "_id",
          "type": "uint256"
        }
      ],
      "name": "getCourse",
      "outputs": [
        {
          "components": [
            {
              "internalType": "uint256",
              "name": "id",
              "type": "uint256"
            },
            {
              "internalType": "string",
              "name": "name",
              "type": "string"
            },
            {
              "internalType": "uint256",
              "name": "users",
              "type": "uint256"
            },
            {
              "internalType": "uint256",
              "name": "price",
              "type": "uint256"
            },
            {
              "internalType": "uint256",
              "name": "reward",
              "type": "uint256"
            },
            {
              "internalType": "string",
              "name": "courseType",
              "type": "string"
            },
            {
              "internalType": "string",
              "name": "hashCourse",
              "type": "string"
            },
            {
              "internalType": "uint256",
              "name": "createTime",
              "type": "uint256"
            }
          ],
          "internalType": "struct EduManage.Course",
          "name": "",
          "type": "tuple"
        }
      ],
      "stateMutability": "view",
      "type": "function"
    },
    {
      "inputs": [],
      "name": "getCourseCount",
      "outputs": [
        {
          "internalType": "uint256",
          "name": "",
          "type": "uint256"
        }
      ],
      "stateMutability": "view",
      "type": "function"
    },
    {
      "inputs": [
        {
          "internalType": "uint256",
          "name": "_stu_id",
          "type": "uint256"
        },
        {
          "internalType": "uint256",
          "name": "_course_id",
          "type": "uint256"
        }
      ],
      "name": "getGrades",
      "outputs": [
        {
          "components": [
            {
              "internalType": "uint256",
              "name": "mark",
              "type": "uint256"
            },
            {
              "internalType": "string",
              "name": "hashResultExam",
              "type": "string"
            },
            {
              "internalType": "bool",
              "name": "isSet",
              "type": "bool"
            },
            {
              "internalType": "bool",
              "name": "isReceiveReward",
              "type": "bool"
            },
            {
              "internalType": "bool",
              "name": "isMintCert",
              "type": "bool"
            }
          ],
          "internalType": "struct EduManage.Grade",
          "name": "",
          "type": "tuple"
        }
      ],
      "stateMutability": "view",
      "type": "function"
    },
    {
      "inputs": [
        {
          "internalType": "uint256",
          "name": "_id",
          "type": "uint256"
        }
      ],
      "name": "getPosts",
      "outputs": [
        {
          "components": [
            {
              "internalType": "uint256",
              "name": "id",
              "type": "uint256"
            },
            {
              "internalType": "address",
              "name": "owner",
              "type": "address"
            },
            {
              "internalType": "uint256",
              "name": "point",
              "type": "uint256"
            },
            {
              "internalType": "uint256",
              "name": "rejectCount",
              "type": "uint256"
            },
            {
              "internalType": "uint256",
              "name": "rewardCount",
              "type": "uint256"
            }
          ],
          "internalType": "struct EduManage.Post",
          "name": "",
          "type": "tuple"
        }
      ],
      "stateMutability": "view",
      "type": "function"
    },
    {
      "inputs": [
        {
          "internalType": "uint256",
          "name": "_id",
          "type": "uint256"
        }
      ],
      "name": "getStudent",
      "outputs": [
        {
          "components": [
            {
              "internalType": "uint256",
              "name": "id",
              "type": "uint256"
            },
            {
              "internalType": "address",
              "name": "stuAdd",
              "type": "address"
            },
            {
              "internalType": "string",
              "name": "stu_name",
              "type": "string"
            },
            {
              "internalType": "uint256[]",
              "name": "courses_id",
              "type": "uint256[]"
            }
          ],
          "internalType": "struct EduManage.Student",
          "name": "",
          "type": "tuple"
        }
      ],
      "stateMutability": "view",
      "type": "function"
    },
    {
      "inputs": [
        {
          "internalType": "uint256",
          "name": "",
          "type": "uint256"
        },
        {
          "internalType": "uint256",
          "name": "",
          "type": "uint256"
        }
      ],
      "name": "grades",
      "outputs": [
        {
          "internalType": "uint256",
          "name": "mark",
          "type": "uint256"
        },
        {
          "internalType": "string",
          "name": "hashResultExam",
          "type": "string"
        },
        {
          "internalType": "bool",
          "name": "isSet",
          "type": "bool"
        },
        {
          "internalType": "bool",
          "name": "isReceiveReward",
          "type": "bool"
        },
        {
          "internalType": "bool",
          "name": "isMintCert",
          "type": "bool"
        }
      ],
      "stateMutability": "view",
      "type": "function"
    },
    {
      "inputs": [],
      "name": "owner",
      "outputs": [
        {
          "internalType": "address",
          "name": "",
          "type": "address"
        }
      ],
      "stateMutability": "view",
      "type": "function"
    },
    {
      "inputs": [],
      "name": "postPointToReward",
      "outputs": [
        {
          "internalType": "uint256",
          "name": "",
          "type": "uint256"
        }
      ],
      "stateMutability": "view",
      "type": "function"
    },
    {
      "inputs": [],
      "name": "postTokenReward",
      "outputs": [
        {
          "internalType": "uint256",
          "name": "",
          "type": "uint256"
        }
      ],
      "stateMutability": "view",
      "type": "function"
    },
    {
      "inputs": [
        {
          "internalType": "address",
          "name": "recipient",
          "type": "address"
        },
        {
          "internalType": "uint256",
          "name": "_numberOfTokens",
          "type": "uint256"
        }
      ],
      "name": "rewardToken",
      "outputs": [],
      "stateMutability": "payable",
      "type": "function"
    },
    {
      "inputs": [
        {
          "internalType": "uint256",
          "name": "stu_id",
          "type": "uint256"
        },
        {
          "internalType": "uint256",
          "name": "course_id",
          "type": "uint256"
        },
        {
          "internalType": "uint256",
          "name": "_mark",
          "type": "uint256"
        },
        {
          "internalType": "string",
          "name": "hash_result_exam",
          "type": "string"
        }
      ],
      "name": "submitGrade",
      "outputs": [
        {
          "internalType": "bool",
          "name": "",
          "type": "bool"
        }
      ],
      "stateMutability": "nonpayable",
      "type": "function"
    }
  ],
  "bytecode": "0x60806040526001600355600a60045560086005553480156200002057600080fd5b5060405162003f5738038062003f5783398181016040528101906200004691906200017a565b336000806101000a81548173ffffffffffffffffffffffffffffffffffffffff021916908373ffffffffffffffffffffffffffffffffffffffff16021790555081600160006101000a81548173ffffffffffffffffffffffffffffffffffffffff021916908373ffffffffffffffffffffffffffffffffffffffff16021790555080600260006101000a81548173ffffffffffffffffffffffffffffffffffffffff021916908373ffffffffffffffffffffffffffffffffffffffff1602179055505050620001c1565b600080fd5b600073ffffffffffffffffffffffffffffffffffffffff82169050919050565b6000620001428262000115565b9050919050565b620001548162000135565b81146200016057600080fd5b50565b600081519050620001748162000149565b92915050565b6000806040838503121562000194576200019362000110565b5b6000620001a48582860162000163565b9250506020620001b78582860162000163565b9150509250929050565b613d8680620001d16000396000f3fe60806040526004361061012a5760003560e01c80635bd6fa74116100ab57806399dbff011161006f57806399dbff0114610423578063a351c2871461043f578063d3bc9aca1461046a578063e8e0788214610493578063eda0a4dc146104be578063fb41138c146104da5761012a565b80635bd6fa741461032657806360e5f3bb14610367578063642f9163146103905780638da5cb5b146103cd57806396cfda06146103f85761012a565b8063313ce567116100f2578063313ce567146102285780633956c5d51461025357806340a7497d1461029057806348339a89146102cd5780634887bef0146102e95761012a565b8063016a75221461012f578063029a36fc146101585780630b91e28d146101835780631b6b6d23146101c05780631d45cddc146101eb575b600080fd5b34801561013b57600080fd5b50610156600480360381019061015191906123c9565b6104f6565b005b34801561016457600080fd5b5061016d610667565b60405161017a9190612468565b60405180910390f35b34801561018f57600080fd5b506101aa60048036038101906101a59190612483565b61068d565b6040516101b7919061260d565b60405180910390f35b3480156101cc57600080fd5b506101d56108a3565b6040516101e29190612650565b60405180910390f35b3480156101f757600080fd5b50610212600480360381019061020d9190612483565b6108c9565b60405161021f91906126e2565b60405180910390f35b34801561023457600080fd5b5061023d610974565b60405161024a919061270c565b60405180910390f35b34801561025f57600080fd5b5061027a60048036038101906102759190612727565b61097a565b60405161028791906127f8565b60405180910390f35b34801561029c57600080fd5b506102b760048036038101906102b2919061294f565b610aa6565b6040516102c491906129e1565b60405180910390f35b6102e760048036038101906102e2919061294f565b610c49565b005b3480156102f557600080fd5b50610310600480360381019061030b9190612727565b611305565b60405161031d91906129e1565b60405180910390f35b34801561033257600080fd5b5061034d60048036038101906103489190612727565b611448565b60405161035e959493929190612a46565b60405180910390f35b34801561037357600080fd5b5061038e60048036038101906103899190612aa0565b61153a565b005b34801561039c57600080fd5b506103b760048036038101906103b29190612483565b6116d0565b6040516103c49190612c28565b60405180910390f35b3480156103d957600080fd5b506103e2611847565b6040516103ef9190612c59565b60405180910390f35b34801561040457600080fd5b5061040d61186b565b60405161041a919061270c565b60405180910390f35b61043d60048036038101906104389190612727565b611875565b005b34801561044b57600080fd5b50610454611b4f565b604051610461919061270c565b60405180910390f35b34801561047657600080fd5b50610491600480360381019061048c9190612c74565b611b55565b005b34801561049f57600080fd5b506104a8611d34565b6040516104b5919061270c565b60405180910390f35b6104d860048036038101906104d39190612727565b611d3a565b005b6104f460048036038101906104ef9190612d55565b611fb3565b005b600c60008273ffffffffffffffffffffffffffffffffffffffff1673ffffffffffffffffffffffffffffffffffffffff16815260200190815260200160002060009054906101000a900460ff16610582576040517f08c379a000000000000000000000000000000000000000000000000000000000815260040161057990612de1565b60405180910390fd5b6000600b600084815260200190815260200160002060000154146105db576040517f08c379a00000000000000000000000000000000000000000000000000000000081526004016105d290612e4d565b60405180910390fd5b600860008154809291906105ee90612e9c565b919050555081600b60008481526020019081526020016000206000018190555080600b600084815260200190815260200160002060010160006101000a81548173ffffffffffffffffffffffffffffffffffffffff021916908373ffffffffffffffffffffffffffffffffffffffff1602179055505050565b600260009054906101000a900473ffffffffffffffffffffffffffffffffffffffff1681565b610695612224565b600a600083815260200190815260200160002060405180610100016040529081600082015481526020016001820180546106ce90612f13565b80601f01602080910402602001604051908101604052809291908181526020018280546106fa90612f13565b80156107475780601f1061071c57610100808354040283529160200191610747565b820191906000526020600020905b81548152906001019060200180831161072a57829003601f168201915b5050505050815260200160028201548152602001600382015481526020016004820154815260200160058201805461077e90612f13565b80601f01602080910402602001604051908101604052809291908181526020018280546107aa90612f13565b80156107f75780601f106107cc576101008083540402835291602001916107f7565b820191906000526020600020905b8154815290600101906020018083116107da57829003601f168201915b5050505050815260200160068201805461081090612f13565b80601f016020809104026020016040519081016040528092919081815260200182805461083c90612f13565b80156108895780601f1061085e57610100808354040283529160200191610889565b820191906000526020600020905b81548152906001019060200180831161086c57829003601f168201915b505050505081526020016007820154815250509050919050565b600160009054906101000a900473ffffffffffffffffffffffffffffffffffffffff1681565b6108d1612269565b600b60008381526020019081526020016000206040518060a0016040529081600082015481526020016001820160009054906101000a900473ffffffffffffffffffffffffffffffffffffffff1673ffffffffffffffffffffffffffffffffffffffff1673ffffffffffffffffffffffffffffffffffffffff16815260200160028201548152602001600382015481526020016004820154815250509050919050565b60055481565b6109826122ae565b600d600084815260200190815260200160002060008381526020019081526020016000206040518060a0016040529081600082015481526020016001820180546109cb90612f13565b80601f01602080910402602001604051908101604052809291908181526020018280546109f790612f13565b8015610a445780601f10610a1957610100808354040283529160200191610a44565b820191906000526020600020905b815481529060010190602001808311610a2757829003601f168201915b505050505081526020016002820160009054906101000a900460ff161515151581526020016002820160019054906101000a900460ff161515151581526020016002820160029054906101000a900460ff161515151581525050905092915050565b6000610ab28585611305565b610af1576040517f08c379a0000000000000000000000000000000000000000000000000000000008152600401610ae890612f90565b60405180910390fd5b600d6000868152602001908152602001600020600085815260200190815260200160002060020160009054906101000a900460ff1615610b66576040517f08c379a0000000000000000000000000000000000000000000000000000000008152600401610b5d90612ffc565b60405180910390fd5b6040518060a0016040528084815260200183815260200160011515815260200160001515815260200160001515815250600d60008781526020019081526020016000206000868152602001908152602001600020600082015181600001556020820151816001019081610bd991906131be565b5060408201518160020160006101000a81548160ff02191690831515021790555060608201518160020160016101000a81548160ff02191690831515021790555060808201518160020160026101000a81548160ff02191690831515021790555090505060019050949350505050565b600d6000858152602001908152602001600020600084815260200190815260200160002060020160009054906101000a900460ff16610cbd576040517f08c379a0000000000000000000000000000000000000000000000000000000008152600401610cb4906132dc565b60405180910390fd5b600d6000858152602001908152602001600020600084815260200190815260200160002060020160019054906101000a900460ff1615610d32576040517f08c379a0000000000000000000000000000000000000000000000000000000008152600401610d299061336e565b60405180910390fd5b600d6000858152602001908152602001600020600084815260200190815260200160002060020160029054906101000a900460ff1615610da7576040517f08c379a0000000000000000000000000000000000000000000000000000000008152600401610d9e90613400565b60405180910390fd5b6000600d6000868152602001908152602001600020600085815260200190815260200160002060000154905080600a10158015610de5575060098110155b1561109d57610e406009600087815260200190815260200160002060010160009054906101000a900473ffffffffffffffffffffffffffffffffffffffff16600a600087815260200190815260200160002060040154611fb3565b600260009054906101000a900473ffffffffffffffffffffffffffffffffffffffff1673ffffffffffffffffffffffffffffffffffffffff1663e7d232a2846009600089815260200190815260200160002060010160009054906101000a900473ffffffffffffffffffffffffffffffffffffffff16600960008a8152602001908152602001600020600201600a60008a815260200190815260200160002060010142600a60008c8152602001908152602001600020600501896040518863ffffffff1660e01b8152600401610f1c97969594939291906134a4565b6020604051808303816000875af1158015610f3b573d6000803e3d6000fd5b505050506040513d601f19601f82011682018060405250810190610f5f9190613544565b507fa4e45d12c1f3fdec083d18975dfe779a14e4ccdc4d29ce3a24761bebac3bf4f86009600087815260200190815260200160002060010160009054906101000a900473ffffffffffffffffffffffffffffffffffffffff168460096000898152602001908152602001600020600201600a600089815260200190815260200160002060010142600a60008b8152602001908152602001600020600501886040516110109796959493929190613571565b60405180910390a16001600d6000878152602001908152602001600020600086815260200190815260200160002060020160016101000a81548160ff0219169083151502179055506001600d6000878152602001908152602001600020600086815260200190815260200160002060020160026101000a81548160ff0219169083151502179055506112fe565b600781106112c257600260009054906101000a900473ffffffffffffffffffffffffffffffffffffffff1673ffffffffffffffffffffffffffffffffffffffff1663e7d232a2846009600089815260200190815260200160002060010160009054906101000a900473ffffffffffffffffffffffffffffffffffffffff16600960008a8152602001908152602001600020600201600a60008a815260200190815260200160002060010142600a60008c8152602001908152602001600020600501896040518863ffffffff1660e01b815260040161118197969594939291906134a4565b6020604051808303816000875af11580156111a0573d6000803e3d6000fd5b505050506040513d601f19601f820116820180604052508101906111c49190613544565b507fa4e45d12c1f3fdec083d18975dfe779a14e4ccdc4d29ce3a24761bebac3bf4f86009600087815260200190815260200160002060010160009054906101000a900473ffffffffffffffffffffffffffffffffffffffff168460096000898152602001908152602001600020600201600a600089815260200190815260200160002060010142600a60008b8152602001908152602001600020600501886040516112759796959493929190613571565b60405180910390a16001600d6000878152602001908152602001600020600086815260200190815260200160002060020160026101000a81548160ff0219169083151502179055506112fd565b6040517f08c379a00000000000000000000000000000000000000000000000000000000081526004016112f490613648565b60405180910390fd5b5b5050505050565b6000600c60006009600086815260200190815260200160002060010160009054906101000a900473ffffffffffffffffffffffffffffffffffffffff1673ffffffffffffffffffffffffffffffffffffffff1673ffffffffffffffffffffffffffffffffffffffff16815260200190815260200160002060009054906101000a900460ff166113c9576040517f08c379a00000000000000000000000000000000000000000000000000000000081526004016113c0906136b4565b60405180910390fd5b6000805b600960008681526020019081526020016000206003018054905081101561143d5783600960008781526020019081526020016000206003018281548110611417576114166136d4565b5b906000526020600020015403611430576001915061143d565b80806001019150506113cd565b508091505092915050565b600d6020528160005260406000206020528060005260406000206000915091505080600001549080600101805461147e90612f13565b80601f01602080910402602001604051908101604052809291908181526020018280546114aa90612f13565b80156114f75780601f106114cc576101008083540402835291602001916114f7565b820191906000526020600020905b8154815290600101906020018083116114da57829003601f168201915b5050505050908060020160009054906101000a900460ff16908060020160019054906101000a900460ff16908060020160029054906101000a900460ff16905085565b600c60008473ffffffffffffffffffffffffffffffffffffffff1673ffffffffffffffffffffffffffffffffffffffff16815260200190815260200160002060009054906101000a900460ff16156115c7576040517f08c379a00000000000000000000000000000000000000000000000000000000081526004016115be9061374f565b60405180910390fd5b600660008154809291906115da90612e9c565b91905055508160096000848152602001908152602001600020600001819055508060096000848152602001908152602001600020600201908161161d91906131be565b50826009600084815260200190815260200160002060010160006101000a81548173ffffffffffffffffffffffffffffffffffffffff021916908373ffffffffffffffffffffffffffffffffffffffff1602179055506001600c60008573ffffffffffffffffffffffffffffffffffffffff1673ffffffffffffffffffffffffffffffffffffffff16815260200190815260200160002060006101000a81548160ff021916908315150217905550505050565b6116d86122e3565b60096000838152602001908152602001600020604051806080016040529081600082015481526020016001820160009054906101000a900473ffffffffffffffffffffffffffffffffffffffff1673ffffffffffffffffffffffffffffffffffffffff1673ffffffffffffffffffffffffffffffffffffffff16815260200160028201805461176690612f13565b80601f016020809104026020016040519081016040528092919081815260200182805461179290612f13565b80156117df5780601f106117b4576101008083540402835291602001916117df565b820191906000526020600020905b8154815290600101906020018083116117c257829003601f168201915b505050505081526020016003820180548060200260200160405190810160405280929190818152602001828054801561183757602002820191906000526020600020905b815481526020019060010190808311611823575b5050505050815250509050919050565b60008054906101000a900473ffffffffffffffffffffffffffffffffffffffff1681565b6000600754905090565b600c60006009600085815260200190815260200160002060010160009054906101000a900473ffffffffffffffffffffffffffffffffffffffff1673ffffffffffffffffffffffffffffffffffffffff1673ffffffffffffffffffffffffffffffffffffffff16815260200190815260200160002060009054906101000a900460ff16611937576040517f08c379a000000000000000000000000000000000000000000000000000000000815260040161192e906136b4565b60405180910390fd5b6119418282611305565b15611981576040517f08c379a0000000000000000000000000000000000000000000000000000000008152600401611978906137bb565b60405180910390fd5b6000600a600083815260200190815260200160002060040154036119da576040517f08c379a00000000000000000000000000000000000000000000000000000000081526004016119d190613827565b60405180910390fd5b600160009054906101000a900473ffffffffffffffffffffffffffffffffffffffff1673ffffffffffffffffffffffffffffffffffffffff166323b872dd6009600085815260200190815260200160002060010160009054906101000a900473ffffffffffffffffffffffffffffffffffffffff1630600554600a611a5f919061397a565b600a600087815260200190815260200160002060030154611a8091906139c5565b6040518463ffffffff1660e01b8152600401611a9e93929190613a07565b6020604051808303816000875af1158015611abd573d6000803e3d6000fd5b505050506040513d601f19601f82011682018060405250810190611ae19190613a6a565b50600a60008281526020019081526020016000206002016000815480929190611b0990612e9c565b9190505550600960008381526020019081526020016000206003018190806001815401808255809150506001900390600052602060002001600090919091909150555050565b60045481565b60008054906101000a900473ffffffffffffffffffffffffffffffffffffffff1673ffffffffffffffffffffffffffffffffffffffff163373ffffffffffffffffffffffffffffffffffffffff1614611be3576040517f08c379a0000000000000000000000000000000000000000000000000000000008152600401611bda90613ae3565b60405180910390fd5b6000600a60008881526020019081526020016000206000015414611c3c576040517f08c379a0000000000000000000000000000000000000000000000000000000008152600401611c3390613b4f565b60405180910390fd5b60076000815480929190611c4f90612e9c565b919050555085600a60008881526020019081526020016000206000018190555084600a60008881526020019081526020016000206001019081611c9291906131be565b5083600a60008881526020019081526020016000206003018190555082600a60008881526020019081526020016000206004018190555081600a60008881526020019081526020016000206005019081611cec91906131be565b5080600a60008881526020019081526020016000206006019081611d1091906131be565b5042600a600088815260200190815260200160002060070181905550505050505050565b60035481565b6000600b60008481526020019081526020016000206004015403611e5357600160045482611d689190613b9e565b10611e135780600b600084815260200190815260200160002060020181905550611de2600b600084815260200190815260200160002060010160009054906101000a900473ffffffffffffffffffffffffffffffffffffffff1660045483611dd09190613b9e565b600354611ddd91906139c5565b611fb3565b600b60008381526020019081526020016000206004016000815480929190611e0990612e9c565b9190505550611e4e565b6040517f08c379a0000000000000000000000000000000000000000000000000000000008152600401611e4590613c67565b60405180910390fd5b611faf565b600b60008381526020019081526020016000206002015481118015611ea757506001600454600b60008581526020019081526020016000206002015483611e9a9190613c87565b611ea49190613b9e565b10155b15611f7357611f27600b600084815260200190815260200160002060010160009054906101000a900473ffffffffffffffffffffffffffffffffffffffff16600454600b60008681526020019081526020016000206002015484611f0b9190613c87565b600354611f1891906139c5565b611f229190613b9e565b611fb3565b80600b600084815260200190815260200160002060020181905550600b60008381526020019081526020016000206004016000815480929190611f6990612e9c565b9190505550611fae565b6040517f08c379a0000000000000000000000000000000000000000000000000000000008152600401611fa590613c67565b60405180910390fd5b5b5050565b600554600a611fc2919061397a565b81611fcd91906139c5565b600160009054906101000a900473ffffffffffffffffffffffffffffffffffffffff1673ffffffffffffffffffffffffffffffffffffffff166370a08231306040518263ffffffff1660e01b81526004016120289190612c59565b602060405180830381865afa158015612045573d6000803e3d6000fd5b505050506040513d601f19601f820116820180604052508101906120699190613544565b10156120aa576040517f08c379a00000000000000000000000000000000000000000000000000000000081526004016120a190613d07565b60405180910390fd5b600160009054906101000a900473ffffffffffffffffffffffffffffffffffffffff1673ffffffffffffffffffffffffffffffffffffffff1663095ea7b330600554600a6120f8919061397a565b8461210391906139c5565b6040518363ffffffff1660e01b8152600401612120929190613d27565b6020604051808303816000875af115801561213f573d6000803e3d6000fd5b505050506040513d601f19601f820116820180604052508101906121639190613a6a565b50600160009054906101000a900473ffffffffffffffffffffffffffffffffffffffff1673ffffffffffffffffffffffffffffffffffffffff166323b872dd3084600554600a6121b3919061397a565b856121be91906139c5565b6040518463ffffffff1660e01b81526004016121dc93929190613a07565b6020604051808303816000875af11580156121fb573d6000803e3d6000fd5b505050506040513d601f19601f8201168201806040525081019061221f9190613a6a565b505050565b60405180610100016040528060008152602001606081526020016000815260200160008152602001600081526020016060815260200160608152602001600081525090565b6040518060a0016040528060008152602001600073ffffffffffffffffffffffffffffffffffffffff1681526020016000815260200160008152602001600081525090565b6040518060a0016040528060008152602001606081526020016000151581526020016000151581526020016000151581525090565b604051806080016040528060008152602001600073ffffffffffffffffffffffffffffffffffffffff16815260200160608152602001606081525090565b6000604051905090565b600080fd5b600080fd5b6000819050919050565b61234881612335565b811461235357600080fd5b50565b6000813590506123658161233f565b92915050565b600073ffffffffffffffffffffffffffffffffffffffff82169050919050565b60006123968261236b565b9050919050565b6123a68161238b565b81146123b157600080fd5b50565b6000813590506123c38161239d565b92915050565b600080604083850312156123e0576123df61232b565b5b60006123ee85828601612356565b92505060206123ff858286016123b4565b9150509250929050565b6000819050919050565b600061242e6124296124248461236b565b612409565b61236b565b9050919050565b600061244082612413565b9050919050565b600061245282612435565b9050919050565b61246281612447565b82525050565b600060208201905061247d6000830184612459565b92915050565b6000602082840312156124995761249861232b565b5b60006124a784828501612356565b91505092915050565b6124b981612335565b82525050565b600081519050919050565b600082825260208201905092915050565b60005b838110156124f95780820151818401526020810190506124de565b60008484015250505050565b6000601f19601f8301169050919050565b6000612521826124bf565b61252b81856124ca565b935061253b8185602086016124db565b61254481612505565b840191505092915050565b60006101008301600083015161256860008601826124b0565b50602083015184820360208601526125808282612516565b915050604083015161259560408601826124b0565b5060608301516125a860608601826124b0565b5060808301516125bb60808601826124b0565b5060a083015184820360a08601526125d38282612516565b91505060c083015184820360c08601526125ed8282612516565b91505060e083015161260260e08601826124b0565b508091505092915050565b60006020820190508181036000830152612627818461254f565b905092915050565b600061263a82612435565b9050919050565b61264a8161262f565b82525050565b60006020820190506126656000830184612641565b92915050565b6126748161238b565b82525050565b60a08201600082015161269060008501826124b0565b5060208201516126a3602085018261266b565b5060408201516126b660408501826124b0565b5060608201516126c960608501826124b0565b5060808201516126dc60808501826124b0565b50505050565b600060a0820190506126f7600083018461267a565b92915050565b61270681612335565b82525050565b600060208201905061272160008301846126fd565b92915050565b6000806040838503121561273e5761273d61232b565b5b600061274c85828601612356565b925050602061275d85828601612356565b9150509250929050565b60008115159050919050565b61277c81612767565b82525050565b600060a08301600083015161279a60008601826124b0565b50602083015184820360208601526127b28282612516565b91505060408301516127c76040860182612773565b5060608301516127da6060860182612773565b5060808301516127ed6080860182612773565b508091505092915050565b600060208201905081810360008301526128128184612782565b905092915050565b600080fd5b600080fd5b7f4e487b7100000000000000000000000000000000000000000000000000000000600052604160045260246000fd5b61285c82612505565b810181811067ffffffffffffffff8211171561287b5761287a612824565b5b80604052505050565b600061288e612321565b905061289a8282612853565b919050565b600067ffffffffffffffff8211156128ba576128b9612824565b5b6128c382612505565b9050602081019050919050565b82818337600083830152505050565b60006128f26128ed8461289f565b612884565b90508281526020810184848401111561290e5761290d61281f565b5b6129198482856128d0565b509392505050565b600082601f8301126129365761293561281a565b5b81356129468482602086016128df565b91505092915050565b600080600080608085870312156129695761296861232b565b5b600061297787828801612356565b945050602061298887828801612356565b935050604061299987828801612356565b925050606085013567ffffffffffffffff8111156129ba576129b9612330565b5b6129c687828801612921565b91505092959194509250565b6129db81612767565b82525050565b60006020820190506129f660008301846129d2565b92915050565b600082825260208201905092915050565b6000612a18826124bf565b612a2281856129fc565b9350612a328185602086016124db565b612a3b81612505565b840191505092915050565b600060a082019050612a5b60008301886126fd565b8181036020830152612a6d8187612a0d565b9050612a7c60408301866129d2565b612a8960608301856129d2565b612a9660808301846129d2565b9695505050505050565b600080600060608486031215612ab957612ab861232b565b5b6000612ac7868287016123b4565b9350506020612ad886828701612356565b925050604084013567ffffffffffffffff811115612af957612af8612330565b5b612b0586828701612921565b9150509250925092565b600081519050919050565b600082825260208201905092915050565b6000819050602082019050919050565b6000612b4783836124b0565b60208301905092915050565b6000602082019050919050565b6000612b6b82612b0f565b612b758185612b1a565b9350612b8083612b2b565b8060005b83811015612bb1578151612b988882612b3b565b9750612ba383612b53565b925050600181019050612b84565b5085935050505092915050565b6000608083016000830151612bd660008601826124b0565b506020830151612be9602086018261266b565b5060408301518482036040860152612c018282612516565b91505060608301518482036060860152612c1b8282612b60565b9150508091505092915050565b60006020820190508181036000830152612c428184612bbe565b905092915050565b612c538161238b565b82525050565b6000602082019050612c6e6000830184612c4a565b92915050565b60008060008060008060c08789031215612c9157612c9061232b565b5b6000612c9f89828a01612356565b965050602087013567ffffffffffffffff811115612cc057612cbf612330565b5b612ccc89828a01612921565b9550506040612cdd89828a01612356565b9450506060612cee89828a01612356565b935050608087013567ffffffffffffffff811115612d0f57612d0e612330565b5b612d1b89828a01612921565b92505060a087013567ffffffffffffffff811115612d3c57612d3b612330565b5b612d4889828a01612921565b9150509295509295509295565b60008060408385031215612d6c57612d6b61232b565b5b6000612d7a858286016123b4565b9250506020612d8b85828601612356565b9150509250929050565b7f4e6f7420617574686f72697a656420746f2061646420706f7374000000000000600082015250565b6000612dcb601a836129fc565b9150612dd682612d95565b602082019050919050565b60006020820190508181036000830152612dfa81612dbe565b9050919050565b7f506f737420686164206372656174656400000000000000000000000000000000600082015250565b6000612e376010836129fc565b9150612e4282612e01565b602082019050919050565b60006020820190508181036000830152612e6681612e2a565b9050919050565b7f4e487b7100000000000000000000000000000000000000000000000000000000600052601160045260246000fd5b6000612ea782612335565b91507fffffffffffffffffffffffffffffffffffffffffffffffffffffffffffffffff8203612ed957612ed8612e6d565b5b600182019050919050565b7f4e487b7100000000000000000000000000000000000000000000000000000000600052602260045260246000fd5b60006002820490506001821680612f2b57607f821691505b602082108103612f3e57612f3d612ee4565b5b50919050565b7f4e6f7420617574686f72697a656420746f207375626d6974206578616d000000600082015250565b6000612f7a601d836129fc565b9150612f8582612f44565b602082019050919050565b60006020820190508181036000830152612fa981612f6d565b9050919050565b7f596f7572206d61726b2069732075706461746500000000000000000000000000600082015250565b6000612fe66013836129fc565b9150612ff182612fb0565b602082019050919050565b6000602082019050818103600083015261301581612fd9565b9050919050565b60008190508160005260206000209050919050565b60006020601f8301049050919050565b600082821b905092915050565b60006008830261307e7fffffffffffffffffffffffffffffffffffffffffffffffffffffffffffffffff82613041565b6130888683613041565b95508019841693508086168417925050509392505050565b60006130bb6130b66130b184612335565b612409565b612335565b9050919050565b6000819050919050565b6130d5836130a0565b6130e96130e1826130c2565b84845461304e565b825550505050565b600090565b6130fe6130f1565b6131098184846130cc565b505050565b5b8181101561312d576131226000826130f6565b60018101905061310f565b5050565b601f821115613172576131438161301c565b61314c84613031565b8101602085101561315b578190505b61316f61316785613031565b83018261310e565b50505b505050565b600082821c905092915050565b600061319560001984600802613177565b1980831691505092915050565b60006131ae8383613184565b9150826002028217905092915050565b6131c7826124bf565b67ffffffffffffffff8111156131e0576131df612824565b5b6131ea8254612f13565b6131f5828285613131565b600060209050601f8311600181146132285760008415613216578287015190505b61322085826131a2565b865550613288565b601f1984166132368661301c565b60005b8281101561325e57848901518255600182019150602085019450602081019050613239565b8683101561327b5784890151613277601f891682613184565b8355505b6001600288020188555050505b505050505050565b7f506c656173652074616b65206578616d00000000000000000000000000000000600082015250565b60006132c66010836129fc565b91506132d182613290565b602082019050919050565b600060208201905081810360008301526132f5816132b9565b9050919050565b7f596f75206861766520726563656976656420612072657761726420666f72207460008201527f68697320636f7572736500000000000000000000000000000000000000000000602082015250565b6000613358602a836129fc565b9150613363826132fc565b604082019050919050565b600060208201905081810360008301526133878161334b565b9050919050565b7f596f75206861766520726563656976656420612063657274696669636174652060008201527f666f72207468697320636f757273650000000000000000000000000000000000602082015250565b60006133ea602f836129fc565b91506133f58261338e565b604082019050919050565b60006020820190508181036000830152613419816133dd565b9050919050565b6000815461342d81612f13565b61343781866129fc565b9450600182166000811461345257600181146134685761349b565b60ff19831686528115156020028601935061349b565b6134718561301c565b60005b8381101561349357815481890152600182019150602081019050613474565b808801955050505b50505092915050565b600060e0820190506134b9600083018a6126fd565b6134c66020830189612c4a565b81810360408301526134d88188613420565b905081810360608301526134ec8187613420565b90506134fb60808301866126fd565b81810360a083015261350d8185613420565b905081810360c08301526135218184612a0d565b905098975050505050505050565b60008151905061353e8161233f565b92915050565b60006020828403121561355a5761355961232b565b5b60006135688482850161352f565b91505092915050565b600060e082019050613586600083018a612c4a565b61359360208301896126fd565b81810360408301526135a58188613420565b905081810360608301526135b98187613420565b90506135c860808301866126fd565b81810360a08301526135da8185613420565b905081810360c08301526135ee8184612a0d565b905098975050505050505050565b7f536f7272792c20796f752068617665206661696c6564206578616d2e00000000600082015250565b6000613632601c836129fc565b915061363d826135fc565b602082019050919050565b6000602082019050818103600083015261366181613625565b9050919050565b7f4e6f7420617574686f72697a656420746f20656e726f6c6c20636f7572736500600082015250565b600061369e601f836129fc565b91506136a982613668565b602082019050919050565b600060208201905081810360008301526136cd81613691565b9050919050565b7f4e487b7100000000000000000000000000000000000000000000000000000000600052603260045260246000fd5b7f4164647265737320616c726561647920686173206163636f756e740000000000600082015250565b6000613739601b836129fc565b915061374482613703565b602082019050919050565b600060208201905081810360008301526137688161372c565b9050919050565b7f596f7520626f75676874207468697320636f7572736500000000000000000000600082015250565b60006137a56016836129fc565b91506137b08261376f565b602082019050919050565b600060208201905081810360008301526137d481613798565b9050919050565b7f436f7572736520646f6573206e6f742065786973740000000000000000000000600082015250565b60006138116015836129fc565b915061381c826137db565b602082019050919050565b6000602082019050818103600083015261384081613804565b9050919050565b60008160011c9050919050565b6000808291508390505b600185111561389e5780860481111561387a57613879612e6d565b5b60018516156138895780820291505b808102905061389785613847565b945061385e565b94509492505050565b6000826138b75760019050613973565b816138c55760009050613973565b81600181146138db57600281146138e557613914565b6001915050613973565b60ff8411156138f7576138f6612e6d565b5b8360020a91508482111561390e5761390d612e6d565b5b50613973565b5060208310610133831016604e8410600b84101617156139495782820a90508381111561394457613943612e6d565b5b613973565b6139568484846001613854565b9250905081840481111561396d5761396c612e6d565b5b81810290505b9392505050565b600061398582612335565b915061399083612335565b92506139bd7fffffffffffffffffffffffffffffffffffffffffffffffffffffffffffffffff84846138a7565b905092915050565b60006139d082612335565b91506139db83612335565b92508282026139e981612335565b91508282048414831517613a00576139ff612e6d565b5b5092915050565b6000606082019050613a1c6000830186612c4a565b613a296020830185612c4a565b613a3660408301846126fd565b949350505050565b613a4781612767565b8114613a5257600080fd5b50565b600081519050613a6481613a3e565b92915050565b600060208284031215613a8057613a7f61232b565b5b6000613a8e84828501613a55565b91505092915050565b7f4e6f7420617574686f72697a656420746f2061646420636f7572736500000000600082015250565b6000613acd601c836129fc565b9150613ad882613a97565b602082019050919050565b60006020820190508181036000830152613afc81613ac0565b9050919050565b7f436f757273652068616420637265617465640000000000000000000000000000600082015250565b6000613b396012836129fc565b9150613b4482613b03565b602082019050919050565b60006020820190508181036000830152613b6881613b2c565b9050919050565b7f4e487b7100000000000000000000000000000000000000000000000000000000600052601260045260246000fd5b6000613ba982612335565b9150613bb483612335565b925082613bc457613bc3613b6f565b5b828204905092915050565b7f536f7272792c20796f7520646f6e2774206861766520656e6f75676820706f6960008201527f6e7420746f2074616b652072657761726420746f6b656e20696e20746869732060208201527f706f737400000000000000000000000000000000000000000000000000000000604082015250565b6000613c516044836129fc565b9150613c5c82613bcf565b606082019050919050565b60006020820190508181036000830152613c8081613c44565b9050919050565b6000613c9282612335565b9150613c9d83612335565b9250828203905081811115613cb557613cb4612e6d565b5b92915050565b7f5472616e73616374696f6e206661696c00000000000000000000000000000000600082015250565b6000613cf16010836129fc565b9150613cfc82613cbb565b602082019050919050565b60006020820190508181036000830152613d2081613ce4565b9050919050565b6000604082019050613d3c6000830185612c4a565b613d4960208301846126fd565b939250505056fea2646970667358221220204345b8ece0b3b93c654cff4051ad1b13f9d5c6fb920a5a41d606662ec879f864736f6c63430008180033",
  "linkReferences": {},
  "deployedLinkReferences": {}
}